{
  "_format": "hh-sol-artifact-1",
  "contractName": "TodoList",
  "sourceName": "contracts/TodoList.sol",
  "abi": [
    {
      "anonymous": false,
      "inputs": [
        {
          "indexed": false,
          "internalType": "address",
          "name": "sender",
          "type": "address"
        }
      ],
      "name": "TaskCompleted",
      "type": "event"
    },
    {
      "anonymous": false,
      "inputs": [
        {
          "indexed": false,
          "internalType": "string",
          "name": "content",
          "type": "string"
        },
        {
          "indexed": false,
          "internalType": "address",
          "name": "sender",
          "type": "address"
        }
      ],
      "name": "TaskCreated",
      "type": "event"
    },
    {
      "anonymous": false,
      "inputs": [
        {
          "indexed": false,
          "internalType": "address",
          "name": "sender",
          "type": "address"
        }
      ],
      "name": "TaskDeleted",
      "type": "event"
    },
    {
      "inputs": [
        {
          "internalType": "uint256",
          "name": "_index",
          "type": "uint256"
        }
      ],
      "name": "completeTask",
      "outputs": [],
      "stateMutability": "nonpayable",
      "type": "function"
    },
    {
      "inputs": [
        {
          "internalType": "string",
          "name": "_content",
          "type": "string"
        }
      ],
      "name": "createTask",
      "outputs": [],
      "stateMutability": "nonpayable",
      "type": "function"
    },
    {
      "inputs": [
        {
          "internalType": "uint256",
          "name": "_index",
          "type": "uint256"
        }
      ],
      "name": "deleteTask",
      "outputs": [],
      "stateMutability": "nonpayable",
      "type": "function"
    },
    {
      "inputs": [
        {
          "internalType": "uint256",
          "name": "_index",
          "type": "uint256"
        }
      ],
      "name": "getTask",
      "outputs": [
        {
          "components": [
            {
              "internalType": "string",
              "name": "content",
              "type": "string"
            },
            {
              "internalType": "bool",
              "name": "completed",
              "type": "bool"
            }
          ],
          "internalType": "struct TodoList.Task",
          "name": "",
          "type": "tuple"
        }
      ],
      "stateMutability": "view",
      "type": "function"
    },
    {
      "inputs": [],
      "name": "getTasksCount",
      "outputs": [
        {
          "internalType": "uint256",
          "name": "",
          "type": "uint256"
        }
      ],
      "stateMutability": "view",
      "type": "function"
    }
  ],
  "bytecode": "0x608060405234801561001057600080fd5b50610d7e806100206000396000f3fe608060405234801561001057600080fd5b50600436106100575760003560e01c8063111002aa1461005c5780631d65e77e14610078578063560f3192146100a85780639f899273146100c4578063e1e29558146100e2575b600080fd5b610076600480360381019061007191906109e2565b6100fe565b005b610092600480360381019061008d9190610a27565b610247565b60405161009f9190610b77565b60405180910390f35b6100c260048036038101906100bd9190610a27565b610398565b005b6100cc610675565b6040516100d99190610b99565b60405180910390f35b6100fc60048036038101906100f79190610a27565b610717565b005b6000604051806040016040528084848080601f016020809104026020016040519081016040528093929190818152602001838380828437600081840152601f19601f8201169050808301925050505050505081526020016000151581525090506000803373ffffffffffffffffffffffffffffffffffffffff1673ffffffffffffffffffffffffffffffffffffffff16815260200190815260200160002081908060018154018082558091505060019003906000526020600020906002020160009091909190915060008201518160000190805190602001906101e29291906107f7565b5060208201518160010160006101000a81548160ff02191690831515021790555050507ffd7f22a108ff44782e6a1eda45c97e9a381ba882d264e03d9f369c1ed0063cf881600001513360405161023a929190610b47565b60405180910390a1505050565b61024f61087d565b60008060003373ffffffffffffffffffffffffffffffffffffffff1673ffffffffffffffffffffffffffffffffffffffff16815260200190815260200160002083815481106102c7577f4e487b7100000000000000000000000000000000000000000000000000000000600052603260045260246000fd5b90600052602060002090600202019050806040518060400160405290816000820180546102f390610c90565b80601f016020809104026020016040519081016040528092919081815260200182805461031f90610c90565b801561036c5780601f106103415761010080835404028352916020019161036c565b820191906000526020600020905b81548152906001019060200180831161034f57829003601f168201915b505050505081526020016001820160009054906101000a900460ff161515151581525050915050919050565b6000803373ffffffffffffffffffffffffffffffffffffffff1673ffffffffffffffffffffffffffffffffffffffff1681526020019081526020016000208054905081106103e557600080fd5b6000803373ffffffffffffffffffffffffffffffffffffffff1673ffffffffffffffffffffffffffffffffffffffff16815260200190815260200160002060016000803373ffffffffffffffffffffffffffffffffffffffff1673ffffffffffffffffffffffffffffffffffffffff168152602001908152602001600020805490506104719190610be1565b815481106104a8577f4e487b7100000000000000000000000000000000000000000000000000000000600052603260045260246000fd5b90600052602060002090600202016000803373ffffffffffffffffffffffffffffffffffffffff1673ffffffffffffffffffffffffffffffffffffffff168152602001908152602001600020828154811061052c577f4e487b7100000000000000000000000000000000000000000000000000000000600052603260045260246000fd5b9060005260206000209060020201600082018160000190805461054e90610c90565b610559929190610899565b506001820160009054906101000a900460ff168160010160006101000a81548160ff0219169083151502179055509050506000803373ffffffffffffffffffffffffffffffffffffffff1673ffffffffffffffffffffffffffffffffffffffff1681526020019081526020016000208054806105fe577f4e487b7100000000000000000000000000000000000000000000000000000000600052603160045260246000fd5b6001900381819060005260206000209060020201600080820160006106239190610926565b6001820160006101000a81549060ff0219169055505090557ff1628708f370aa3f31c9a1e3ec4bbe462bdf295f1a00f0371a2fc76aa94b3a4f3360405161066a9190610b2c565b60405180910390a150565b6000806000803373ffffffffffffffffffffffffffffffffffffffff1673ffffffffffffffffffffffffffffffffffffffff1681526020019081526020016000208054905014156106c95760009050610714565b60008060003373ffffffffffffffffffffffffffffffffffffffff1673ffffffffffffffffffffffffffffffffffffffff168152602001908152602001600020805490509050809150505b90565b60008060003373ffffffffffffffffffffffffffffffffffffffff1673ffffffffffffffffffffffffffffffffffffffff168152602001908152602001600020828154811061078f577f4e487b7100000000000000000000000000000000000000000000000000000000600052603260045260246000fd5b9060005260206000209060020201905060018160010160006101000a81548160ff0219169083151502179055507fc67e2ae474f7ddf78b2e9d5b6d45422b30f52a0efbb5600f9a723c515d385f93336040516107eb9190610b2c565b60405180910390a15050565b82805461080390610c90565b90600052602060002090601f016020900481019282610825576000855561086c565b82601f1061083e57805160ff191683800117855561086c565b8280016001018555821561086c579182015b8281111561086b578251825591602001919060010190610850565b5b5090506108799190610966565b5090565b6040518060400160405280606081526020016000151581525090565b8280546108a590610c90565b90600052602060002090601f0160209004810192826108c75760008555610915565b82601f106108d85780548555610915565b8280016001018555821561091557600052602060002091601f016020900482015b828111156109145782548255916001019190600101906108f9565b5b5090506109229190610966565b5090565b50805461093290610c90565b6000825580601f106109445750610963565b601f0160209004906000526020600020908101906109629190610966565b5b50565b5b8082111561097f576000816000905550600101610967565b5090565b60008083601f84011261099557600080fd5b8235905067ffffffffffffffff8111156109ae57600080fd5b6020830191508360018202830111156109c657600080fd5b9250929050565b6000813590506109dc81610d31565b92915050565b600080602083850312156109f557600080fd5b600083013567ffffffffffffffff811115610a0f57600080fd5b610a1b85828601610983565b92509250509250929050565b600060208284031215610a3957600080fd5b6000610a47848285016109cd565b91505092915050565b610a5981610c15565b82525050565b610a6881610c27565b82525050565b6000610a7982610bb4565b610a838185610bbf565b9350610a93818560208601610c5d565b610a9c81610d20565b840191505092915050565b6000610ab282610bb4565b610abc8185610bd0565b9350610acc818560208601610c5d565b610ad581610d20565b840191505092915050565b60006040830160008301518482036000860152610afd8282610a6e565b9150506020830151610b126020860182610a5f565b508091505092915050565b610b2681610c53565b82525050565b6000602082019050610b416000830184610a50565b92915050565b60006040820190508181036000830152610b618185610aa7565b9050610b706020830184610a50565b9392505050565b60006020820190508181036000830152610b918184610ae0565b905092915050565b6000602082019050610bae6000830184610b1d565b92915050565b600081519050919050565b600082825260208201905092915050565b600082825260208201905092915050565b6000610bec82610c53565b9150610bf783610c53565b925082821015610c0a57610c09610cc2565b5b828203905092915050565b6000610c2082610c33565b9050919050565b60008115159050919050565b600073ffffffffffffffffffffffffffffffffffffffff82169050919050565b6000819050919050565b60005b83811015610c7b578082015181840152602081019050610c60565b83811115610c8a576000848401525b50505050565b60006002820490506001821680610ca857607f821691505b60208210811415610cbc57610cbb610cf1565b5b50919050565b7f4e487b7100000000000000000000000000000000000000000000000000000000600052601160045260246000fd5b7f4e487b7100000000000000000000000000000000000000000000000000000000600052602260045260246000fd5b6000601f19601f8301169050919050565b610d3a81610c53565b8114610d4557600080fd5b5056fea26469706673582212206a8753917a7e06c5f6a90dc7515e5fbe2ce6c02f13115b93239961826a0a4aaa64736f6c63430008040033",
  "linkReferences": {},
  "deployedLinkReferences": {}
}